{
  "contractName": "DappMedium",
  "abi": [
    {
      "inputs": [],
      "payable": true,
      "stateMutability": "payable",
      "type": "constructor"
    },
    {
      "constant": true,
      "inputs": [],
      "name": "noOfarticle",
      "outputs": [
        {
          "internalType": "uint256",
          "name": "",
          "type": "uint256"
        }
      ],
      "payable": false,
      "stateMutability": "view",
      "type": "function"
    },
    {
      "constant": false,
      "inputs": [],
      "name": "noOfarticles",
      "outputs": [
        {
          "internalType": "uint256",
          "name": "",
          "type": "uint256"
        }
      ],
      "payable": false,
      "stateMutability": "nonpayable",
      "type": "function"
    },
    {
      "constant": false,
      "inputs": [
        {
          "internalType": "address",
          "name": "owner",
          "type": "address"
        },
        {
          "internalType": "string",
          "name": "articleHash",
          "type": "string"
        }
      ],
      "name": "addArticle",
      "outputs": [],
      "payable": false,
      "stateMutability": "nonpayable",
      "type": "function"
    },
    {
      "constant": true,
      "inputs": [
        {
          "internalType": "uint256",
          "name": "id",
          "type": "uint256"
        }
      ],
      "name": "getArticle",
      "outputs": [
        {
          "internalType": "string",
          "name": "",
          "type": "string"
        }
      ],
      "payable": false,
      "stateMutability": "view",
      "type": "function"
    },
    {
      "constant": true,
      "inputs": [
        {
          "internalType": "uint256",
          "name": "id",
          "type": "uint256"
        }
      ],
      "name": "getWriterAddress",
      "outputs": [
        {
          "internalType": "address",
          "name": "",
          "type": "address"
        }
      ],
      "payable": false,
      "stateMutability": "view",
      "type": "function"
    },
    {
      "constant": false,
      "inputs": [
        {
          "internalType": "address payable",
          "name": "ad",
          "type": "address"
        }
      ],
      "name": "transferToRead",
      "outputs": [],
      "payable": true,
      "stateMutability": "payable",
      "type": "function"
    },
    {
      "constant": true,
      "inputs": [],
      "name": "walletBalance",
      "outputs": [
        {
          "internalType": "uint256",
          "name": "",
          "type": "uint256"
        }
      ],
      "payable": false,
      "stateMutability": "view",
      "type": "function"
    }
  ],
  "bytecode": "0x60806040526000600255610611806100186000396000f3fe6080604052600436106100705760003560e01c80637b145ce61161004e5780637b145ce61461021c578063ae6128f614610247578063bd85d86714610272578063cd0a314b1461032657610070565b8063048ac88e146100755780632ea4767a146100b95780635293cb2014610134575b600080fd5b6100b76004803603602081101561008b57600080fd5b81019080803573ffffffffffffffffffffffffffffffffffffffff169060200190929190505050610351565b005b3480156100c557600080fd5b506100f2600480360360208110156100dc57600080fd5b810190808035906020019092919050505061039b565b604051808273ffffffffffffffffffffffffffffffffffffffff1673ffffffffffffffffffffffffffffffffffffffff16815260200191505060405180910390f35b34801561014057600080fd5b5061021a6004803603604081101561015757600080fd5b81019080803573ffffffffffffffffffffffffffffffffffffffff1690602001909291908035906020019064010000000081111561019457600080fd5b8201836020820111156101a657600080fd5b803590602001918460018302840111640100000000831117156101c857600080fd5b91908080601f016020809104026020016040519081016040528093929190818152602001838380828437600081840152601f19601f8201169050808301925050505050505091929192905050506103d8565b005b34801561022857600080fd5b5061023161046b565b6040518082815260200191505060405180910390f35b34801561025357600080fd5b5061025c610475565b6040518082815260200191505060405180910390f35b34801561027e57600080fd5b506102ab6004803603602081101561029557600080fd5b810190808035906020019092919050505061047b565b6040518080602001828103825283818151815260200191508051906020019080838360005b838110156102eb5780820151818401526020810190506102d0565b50505050905090810190601f1680156103185780820380516001836020036101000a031916815260200191505b509250505060405180910390f35b34801561033257600080fd5b5061033b61052f565b6040518082815260200191505060405180910390f35b8073ffffffffffffffffffffffffffffffffffffffff166108fc349081150290604051600060405180830381858888f19350505050158015610397573d6000803e3d6000fd5b5050565b60006001600083815260200190815260200160002060009054906101000a900473ffffffffffffffffffffffffffffffffffffffff169050919050565b8060008060025481526020019081526020016000209080519060200190610400929190610537565b508160016000600254815260200190815260200160002060006101000a81548173ffffffffffffffffffffffffffffffffffffffff021916908373ffffffffffffffffffffffffffffffffffffffff1602179055506002600081548092919060010191905055505050565b6000600254905090565b60025481565b60606000808381526020019081526020016000208054600181600116156101000203166002900480601f0160208091040260200160405190810160405280929190818152602001828054600181600116156101000203166002900480156105235780601f106104f857610100808354040283529160200191610523565b820191906000526020600020905b81548152906001019060200180831161050657829003601f168201915b50505050509050919050565b600047905090565b828054600181600116156101000203166002900490600052602060002090601f016020900481019282601f1061057857805160ff19168380011785556105a6565b828001600101855582156105a6579182015b828111156105a557825182559160200191906001019061058a565b5b5090506105b391906105b7565b5090565b6105d991905b808211156105d55760008160009055506001016105bd565b5090565b9056fea265627a7a72315820ee313e185065aa54e388693f1a5a62fa87920824af6cb4708c4fe7734264c40c64736f6c63430005100032",
  "source": "pragma solidity ^0.5.0;\n\ncontract DappMedium{\n\n    mapping(uint =>  string)contentHash;\n    mapping(uint => address)contentWriter;\n    uint public noOfarticle = 0;\n\n    // function registerTowrite(address payable ad) public{\n    //     writers[noOfwriters] = ad;\n    //     noOfwriters++;\n    // }\n\n    constructor() payable public{\n\n    }\n\n    function noOfarticles() public returns(uint){\n        return noOfarticle;\n    }\n\n\n    function addArticle(address owner, string memory articleHash) public{\n        contentHash[noOfarticle] = articleHash;\n        contentWriter[noOfarticle] = owner;\n        noOfarticle++;\n    }\n\n    function getArticle(uint id) view public returns(string memory){\n        return contentHash[id];\n    }\n\n    function getWriterAddress(uint id) view public returns(address){\n        return contentWriter[id];\n    }\n\n    function transferToRead(address payable ad) payable public {\n        ad.transfer(msg.value);\n    }\n\n    function walletBalance() view public returns(uint) {\n        return address(this).balance;\n    }\n}\n",
  "sourcePath": "D:/demo/DappMedium/contracts/DappMedium.sol",
  "compiler": {
    "name": "solc",
    "version": "0.5.16+commit.9c3226ce.Emscripten.clang"
  },
  "schemaVersion": "3.2.3",
  "updatedAt": "2020-09-04T10:46:13.860Z",
  "networkType": "ethereum",
  "devdoc": {
    "methods": {}
  },
  "userdoc": {
    "methods": {}
  }
}