{
  "contractName": "DappMedium",
  "abi": [
    {
      "inputs": [],
      "payable": true,
      "stateMutability": "payable",
      "type": "constructor"
    },
    {
      "constant": false,
      "inputs": [],
      "name": "noOfarticles",
      "outputs": [
        {
          "internalType": "uint256",
          "name": "",
          "type": "uint256"
        }
      ],
      "payable": false,
      "stateMutability": "nonpayable",
      "type": "function"
    },
    {
      "constant": false,
      "inputs": [
        {
          "internalType": "address",
          "name": "owner",
          "type": "address"
        },
        {
          "internalType": "string",
          "name": "articleHash",
          "type": "string"
        }
      ],
      "name": "addArticle",
      "outputs": [],
      "payable": false,
      "stateMutability": "nonpayable",
      "type": "function"
    },
    {
      "constant": false,
      "inputs": [
        {
          "internalType": "uint256",
          "name": "id",
          "type": "uint256"
        }
      ],
      "name": "getArticle",
      "outputs": [
        {
          "internalType": "string",
          "name": "",
          "type": "string"
        }
      ],
      "payable": false,
      "stateMutability": "nonpayable",
      "type": "function"
    },
    {
      "constant": false,
      "inputs": [
        {
          "internalType": "uint256",
          "name": "id",
          "type": "uint256"
        }
      ],
      "name": "getWriterAddress",
      "outputs": [
        {
          "internalType": "address",
          "name": "",
          "type": "address"
        }
      ],
      "payable": false,
      "stateMutability": "nonpayable",
      "type": "function"
    },
    {
      "constant": false,
      "inputs": [
        {
          "internalType": "address payable",
          "name": "ad",
          "type": "address"
        }
      ],
      "name": "transferToRead",
      "outputs": [],
      "payable": true,
      "stateMutability": "payable",
      "type": "function"
    },
    {
      "constant": true,
      "inputs": [],
      "name": "walletBalance",
      "outputs": [
        {
          "internalType": "uint256",
          "name": "",
          "type": "uint256"
        }
      ],
      "payable": false,
      "stateMutability": "view",
      "type": "function"
    }
  ],
  "bytecode": "0x608060405260006002556105c5806100186000396000f3fe6080604052600436106100555760003560e01c8063048ac88e1461005a5780632ea4767a1461009e5780635293cb20146101195780637b145ce614610201578063bd85d8671461022c578063cd0a314b146102e0575b600080fd5b61009c6004803603602081101561007057600080fd5b81019080803573ffffffffffffffffffffffffffffffffffffffff16906020019092919050505061030b565b005b3480156100aa57600080fd5b506100d7600480360360208110156100c157600080fd5b8101908080359060200190929190505050610355565b604051808273ffffffffffffffffffffffffffffffffffffffff1673ffffffffffffffffffffffffffffffffffffffff16815260200191505060405180910390f35b34801561012557600080fd5b506101ff6004803603604081101561013c57600080fd5b81019080803573ffffffffffffffffffffffffffffffffffffffff1690602001909291908035906020019064010000000081111561017957600080fd5b82018360208201111561018b57600080fd5b803590602001918460018302840111640100000000831117156101ad57600080fd5b91908080601f016020809104026020016040519081016040528093929190818152602001838380828437600081840152601f19601f820116905080830192505050505050509192919290505050610392565b005b34801561020d57600080fd5b50610216610425565b6040518082815260200191505060405180910390f35b34801561023857600080fd5b506102656004803603602081101561024f57600080fd5b810190808035906020019092919050505061042f565b6040518080602001828103825283818151815260200191508051906020019080838360005b838110156102a557808201518184015260208101905061028a565b50505050905090810190601f1680156102d25780820380516001836020036101000a031916815260200191505b509250505060405180910390f35b3480156102ec57600080fd5b506102f56104e3565b6040518082815260200191505060405180910390f35b8073ffffffffffffffffffffffffffffffffffffffff166108fc349081150290604051600060405180830381858888f19350505050158015610351573d6000803e3d6000fd5b5050565b60006001600083815260200190815260200160002060009054906101000a900473ffffffffffffffffffffffffffffffffffffffff169050919050565b80600080600254815260200190815260200160002090805190602001906103ba9291906104eb565b508160016000600254815260200190815260200160002060006101000a81548173ffffffffffffffffffffffffffffffffffffffff021916908373ffffffffffffffffffffffffffffffffffffffff1602179055506002600081548092919060010191905055505050565b6000600254905090565b60606000808381526020019081526020016000208054600181600116156101000203166002900480601f0160208091040260200160405190810160405280929190818152602001828054600181600116156101000203166002900480156104d75780601f106104ac576101008083540402835291602001916104d7565b820191906000526020600020905b8154815290600101906020018083116104ba57829003601f168201915b50505050509050919050565b600047905090565b828054600181600116156101000203166002900490600052602060002090601f016020900481019282601f1061052c57805160ff191683800117855561055a565b8280016001018555821561055a579182015b8281111561055957825182559160200191906001019061053e565b5b509050610567919061056b565b5090565b61058d91905b80821115610589576000816000905550600101610571565b5090565b9056fea265627a7a7231582003858d6283d63ce4552fa1581e56e70a96b613f3f5e3ae4d427702c22a62cfd564736f6c63430005100032",
  "source": "pragma solidity ^0.5.0;\n\ncontract DappMedium{\n\n    mapping(uint =>  string)contentHash;\n    mapping(uint => address)contentWriter;\n    uint noOfarticle = 0;\n\n    // function registerTowrite(address payable ad) public{\n    //     writers[noOfwriters] = ad;\n    //     noOfwriters++;\n    // }\n\n    constructor() payable public{\n\n    }\n\n    function noOfarticles() public returns(uint){\n        return noOfarticle;\n    }\n\n    function addArticle(address owner, string memory articleHash) public{\n        contentHash[noOfarticle] = articleHash;\n        contentWriter[noOfarticle] = owner;\n        noOfarticle++;\n    }\n\n    function getArticle(uint id) public returns(string memory){\n        return contentHash[id];\n    }\n\n    function getWriterAddress(uint id) public returns(address){\n        return contentWriter[id];\n    }\n\n    function transferToRead(address payable ad) payable public {\n        ad.transfer(msg.value);\n    }\n\n    function walletBalance() view public returns(uint) {\n        return address(this).balance;\n    }\n}\n",
  "sourcePath": "D:/demo/DappMedium/contracts/DappMedium.sol",
  "compiler": {
    "name": "solc",
    "version": "0.5.16+commit.9c3226ce.Emscripten.clang"
  },
  "schemaVersion": "3.2.3",
  "updatedAt": "2020-08-29T21:45:29.787Z",
  "networkType": "ethereum",
  "devdoc": {
    "methods": {}
  },
  "userdoc": {
    "methods": {}
  }
}